{
  "_format": "hh-sol-artifact-1",
  "contractName": "GovernanceToken",
  "sourceName": "contracts/GovernanceToken.sol",
  "abi": [
    {
      "inputs": [
        {
          "internalType": "string",
          "name": "_name",
          "type": "string"
        },
        {
          "internalType": "string",
          "name": "_symbol",
          "type": "string"
        },
        {
          "internalType": "uint256",
          "name": "_totalSupply",
          "type": "uint256"
        }
      ],
      "stateMutability": "nonpayable",
      "type": "constructor"
    },
    {
      "anonymous": false,
      "inputs": [
        {
          "indexed": true,
          "internalType": "address",
          "name": "owner",
          "type": "address"
        },
        {
          "indexed": true,
          "internalType": "address",
          "name": "spender",
          "type": "address"
        },
        {
          "indexed": false,
          "internalType": "uint256",
          "name": "value",
          "type": "uint256"
        }
      ],
      "name": "Approval",
      "type": "event"
    },
    {
      "anonymous": false,
      "inputs": [
        {
          "indexed": true,
          "internalType": "address",
          "name": "delegator",
          "type": "address"
        },
        {
          "indexed": true,
          "internalType": "address",
          "name": "fromDelegate",
          "type": "address"
        },
        {
          "indexed": true,
          "internalType": "address",
          "name": "toDelegate",
          "type": "address"
        }
      ],
      "name": "DelegateChanged",
      "type": "event"
    },
    {
      "anonymous": false,
      "inputs": [
        {
          "indexed": true,
          "internalType": "address",
          "name": "delegate",
          "type": "address"
        },
        {
          "indexed": false,
          "internalType": "uint256",
          "name": "previousBalance",
          "type": "uint256"
        },
        {
          "indexed": false,
          "internalType": "uint256",
          "name": "newBalance",
          "type": "uint256"
        }
      ],
      "name": "DelegateVotesChanged",
      "type": "event"
    },
    {
      "anonymous": false,
      "inputs": [
        {
          "indexed": true,
          "internalType": "address",
          "name": "from",
          "type": "address"
        },
        {
          "indexed": true,
          "internalType": "address",
          "name": "to",
          "type": "address"
        },
        {
          "indexed": false,
          "internalType": "uint256",
          "name": "value",
          "type": "uint256"
        }
      ],
      "name": "Transfer",
      "type": "event"
    },
    {
      "inputs": [],
      "name": "DOMAIN_SEPARATOR",
      "outputs": [
        {
          "internalType": "bytes32",
          "name": "",
          "type": "bytes32"
        }
      ],
      "stateMutability": "view",
      "type": "function"
    },
    {
      "inputs": [
        {
          "internalType": "address",
          "name": "owner",
          "type": "address"
        },
        {
          "internalType": "address",
          "name": "spender",
          "type": "address"
        }
      ],
      "name": "allowance",
      "outputs": [
        {
          "internalType": "uint256",
          "name": "",
          "type": "uint256"
        }
      ],
      "stateMutability": "view",
      "type": "function"
    },
    {
      "inputs": [
        {
          "internalType": "address",
          "name": "spender",
          "type": "address"
        },
        {
          "internalType": "uint256",
          "name": "amount",
          "type": "uint256"
        }
      ],
      "name": "approve",
      "outputs": [
        {
          "internalType": "bool",
          "name": "",
          "type": "bool"
        }
      ],
      "stateMutability": "nonpayable",
      "type": "function"
    },
    {
      "inputs": [
        {
          "internalType": "address",
          "name": "account",
          "type": "address"
        }
      ],
      "name": "balanceOf",
      "outputs": [
        {
          "internalType": "uint256",
          "name": "",
          "type": "uint256"
        }
      ],
      "stateMutability": "view",
      "type": "function"
    },
    {
      "inputs": [
        {
          "internalType": "address",
          "name": "account",
          "type": "address"
        },
        {
          "internalType": "uint32",
          "name": "pos",
          "type": "uint32"
        }
      ],
      "name": "checkpoints",
      "outputs": [
        {
          "components": [
            {
              "internalType": "uint32",
              "name": "fromBlock",
              "type": "uint32"
            },
            {
              "internalType": "uint224",
              "name": "votes",
              "type": "uint224"
            }
          ],
          "internalType": "struct ERC20Votes.Checkpoint",
          "name": "",
          "type": "tuple"
        }
      ],
      "stateMutability": "view",
      "type": "function"
    },
    {
      "inputs": [],
      "name": "decimals",
      "outputs": [
        {
          "internalType": "uint8",
          "name": "",
          "type": "uint8"
        }
      ],
      "stateMutability": "view",
      "type": "function"
    },
    {
      "inputs": [
        {
          "internalType": "address",
          "name": "spender",
          "type": "address"
        },
        {
          "internalType": "uint256",
          "name": "subtractedValue",
          "type": "uint256"
        }
      ],
      "name": "decreaseAllowance",
      "outputs": [
        {
          "internalType": "bool",
          "name": "",
          "type": "bool"
        }
      ],
      "stateMutability": "nonpayable",
      "type": "function"
    },
    {
      "inputs": [
        {
          "internalType": "address",
          "name": "delegatee",
          "type": "address"
        }
      ],
      "name": "delegate",
      "outputs": [],
      "stateMutability": "nonpayable",
      "type": "function"
    },
    {
      "inputs": [
        {
          "internalType": "address",
          "name": "delegatee",
          "type": "address"
        },
        {
          "internalType": "uint256",
          "name": "nonce",
          "type": "uint256"
        },
        {
          "internalType": "uint256",
          "name": "expiry",
          "type": "uint256"
        },
        {
          "internalType": "uint8",
          "name": "v",
          "type": "uint8"
        },
        {
          "internalType": "bytes32",
          "name": "r",
          "type": "bytes32"
        },
        {
          "internalType": "bytes32",
          "name": "s",
          "type": "bytes32"
        }
      ],
      "name": "delegateBySig",
      "outputs": [],
      "stateMutability": "nonpayable",
      "type": "function"
    },
    {
      "inputs": [
        {
          "internalType": "address",
          "name": "account",
          "type": "address"
        }
      ],
      "name": "delegates",
      "outputs": [
        {
          "internalType": "address",
          "name": "",
          "type": "address"
        }
      ],
      "stateMutability": "view",
      "type": "function"
    },
    {
      "inputs": [
        {
          "internalType": "uint256",
          "name": "blockNumber",
          "type": "uint256"
        }
      ],
      "name": "getPastTotalSupply",
      "outputs": [
        {
          "internalType": "uint256",
          "name": "",
          "type": "uint256"
        }
      ],
      "stateMutability": "view",
      "type": "function"
    },
    {
      "inputs": [
        {
          "internalType": "address",
          "name": "account",
          "type": "address"
        },
        {
          "internalType": "uint256",
          "name": "blockNumber",
          "type": "uint256"
        }
      ],
      "name": "getPastVotes",
      "outputs": [
        {
          "internalType": "uint256",
          "name": "",
          "type": "uint256"
        }
      ],
      "stateMutability": "view",
      "type": "function"
    },
    {
      "inputs": [
        {
          "internalType": "address",
          "name": "account",
          "type": "address"
        }
      ],
      "name": "getVotes",
      "outputs": [
        {
          "internalType": "uint256",
          "name": "",
          "type": "uint256"
        }
      ],
      "stateMutability": "view",
      "type": "function"
    },
    {
      "inputs": [
        {
          "internalType": "address",
          "name": "spender",
          "type": "address"
        },
        {
          "internalType": "uint256",
          "name": "addedValue",
          "type": "uint256"
        }
      ],
      "name": "increaseAllowance",
      "outputs": [
        {
          "internalType": "bool",
          "name": "",
          "type": "bool"
        }
      ],
      "stateMutability": "nonpayable",
      "type": "function"
    },
    {
      "inputs": [],
      "name": "name",
      "outputs": [
        {
          "internalType": "string",
          "name": "",
          "type": "string"
        }
      ],
      "stateMutability": "view",
      "type": "function"
    },
    {
      "inputs": [
        {
          "internalType": "address",
          "name": "owner",
          "type": "address"
        }
      ],
      "name": "nonces",
      "outputs": [
        {
          "internalType": "uint256",
          "name": "",
          "type": "uint256"
        }
      ],
      "stateMutability": "view",
      "type": "function"
    },
    {
      "inputs": [
        {
          "internalType": "address",
          "name": "account",
          "type": "address"
        }
      ],
      "name": "numCheckpoints",
      "outputs": [
        {
          "internalType": "uint32",
          "name": "",
          "type": "uint32"
        }
      ],
      "stateMutability": "view",
      "type": "function"
    },
    {
      "inputs": [
        {
          "internalType": "address",
          "name": "owner",
          "type": "address"
        },
        {
          "internalType": "address",
          "name": "spender",
          "type": "address"
        },
        {
          "internalType": "uint256",
          "name": "value",
          "type": "uint256"
        },
        {
          "internalType": "uint256",
          "name": "deadline",
          "type": "uint256"
        },
        {
          "internalType": "uint8",
          "name": "v",
          "type": "uint8"
        },
        {
          "internalType": "bytes32",
          "name": "r",
          "type": "bytes32"
        },
        {
          "internalType": "bytes32",
          "name": "s",
          "type": "bytes32"
        }
      ],
      "name": "permit",
      "outputs": [],
      "stateMutability": "nonpayable",
      "type": "function"
    },
    {
      "inputs": [],
      "name": "s_maxSupply",
      "outputs": [
        {
          "internalType": "uint256",
          "name": "",
          "type": "uint256"
        }
      ],
      "stateMutability": "view",
      "type": "function"
    },
    {
      "inputs": [],
      "name": "symbol",
      "outputs": [
        {
          "internalType": "string",
          "name": "",
          "type": "string"
        }
      ],
      "stateMutability": "view",
      "type": "function"
    },
    {
      "inputs": [],
      "name": "totalSupply",
      "outputs": [
        {
          "internalType": "uint256",
          "name": "",
          "type": "uint256"
        }
      ],
      "stateMutability": "view",
      "type": "function"
    },
    {
      "inputs": [
        {
          "internalType": "address",
          "name": "to",
          "type": "address"
        },
        {
          "internalType": "uint256",
          "name": "amount",
          "type": "uint256"
        }
      ],
      "name": "transfer",
      "outputs": [
        {
          "internalType": "bool",
          "name": "",
          "type": "bool"
        }
      ],
      "stateMutability": "nonpayable",
      "type": "function"
    },
    {
      "inputs": [
        {
          "internalType": "address",
          "name": "from",
          "type": "address"
        },
        {
          "internalType": "address",
          "name": "to",
          "type": "address"
        },
        {
          "internalType": "uint256",
          "name": "amount",
          "type": "uint256"
        }
      ],
      "name": "transferFrom",
      "outputs": [
        {
          "internalType": "bool",
          "name": "",
          "type": "bool"
        }
      ],
      "stateMutability": "nonpayable",
      "type": "function"
    }
  ],
  "bytecode": "0x6101406040523480156200001257600080fd5b5060405162002c1f38038062002c1f833981016040819052620000359162000852565b8280604051806040016040528060018152602001603160f81b815250858581600390805190602001906200006b929190620006e9565b50805162000081906004906020840190620006e9565b5050825160209384012082519284019290922060e08390526101008190524660a0818152604080517f8b73c3c69bb8fe3d512ecc4cf759cc79239f7b179b0ffacaa9a75d522b39400f818901819052818301979097526060810194909452608080850193909352308483018190528151808603909301835260c094850190915281519190960120905292909252610120525062000121905033826200012d565b600a55506200094d9050565b6200014482826200014860201b62000bc51760201c565b5050565b6200015f8282620001ff60201b62000c771760201c565b6001600160e01b0362000173620002cc8216565b1115620001e05760405162461bcd60e51b815260206004820152603060248201527f4552433230566f7465733a20746f74616c20737570706c79207269736b73206f60448201526f766572666c6f77696e6720766f74657360801b60648201526084015b60405180910390fd5b620001f9600962000d5c620002d260201b1783620002e7565b50505050565b6001600160a01b038216620002575760405162461bcd60e51b815260206004820152601f60248201527f45524332303a206d696e7420746f20746865207a65726f2061646472657373006044820152606401620001d7565b80600260008282546200026b9190620008db565b90915550506001600160a01b038216600081815260208181526040808320805486019055518481527fddf252ad1be2c89b69c2b068fc378daa952ba7f163c4a11628f55a4df523b3ef910160405180910390a362000144600083836200047e565b60025490565b6000620002e08284620008db565b9392505050565b825460009081908181156200034757620003168762000308600185620008f6565b600091825260209091200190565b60408051808201909152905463ffffffff8116825264010000000090046001600160e01b031660208201526200035c565b60408051808201909152600080825260208201525b905080602001516001600160e01b031693506200037a84868860201c565b9250600082118015620003935750805163ffffffff1643145b15620003ea57620003af836200049660201b62000d681760201c565b620003c18862000308600186620008f6565b80546001600160e01b03929092166401000000000263ffffffff9092169190911790556200046f565b8660405180604001604052806200040c436200050560201b62000e001760201c565b63ffffffff1681526020016200042d866200049660201b62000d681760201c565b6001600160e01b0390811690915282546001810184556000938452602093849020835194909301519091166401000000000263ffffffff909316929092179101555b5050935093915050565b505050565b620004798383836200056c60201b62000e7c1760201c565b60006001600160e01b03821115620005015760405162461bcd60e51b815260206004820152602760248201527f53616665436173743a2076616c756520646f65736e27742066697420696e20326044820152663234206269747360c81b6064820152608401620001d7565b5090565b600063ffffffff821115620005015760405162461bcd60e51b815260206004820152602660248201527f53616665436173743a2076616c756520646f65736e27742066697420696e203360448201526532206269747360d01b6064820152608401620001d7565b620005848383836200047960201b62000ebb1760201c565b6001600160a01b038381166000908152600760205260408082205485841683529120546200047992918216911683818314801590620005c35750600081115b1562000479576001600160a01b0383161562000650576001600160a01b0383166000908152600860209081526040822082916200060d9190620006db901b62000ec01785620002e7565b91509150846001600160a01b031660008051602062002bff833981519152838360405162000645929190918252602082015260400190565b60405180910390a250505b6001600160a01b0382161562000479576001600160a01b038216600090815260086020908152604082208291620006949190620002d2901b62000d5c1785620002e7565b91509150836001600160a01b031660008051602062002bff8339815191528383604051620006cc929190918252602082015260400190565b60405180910390a25050505050565b6000620002e08284620008f6565b828054620006f79062000910565b90600052602060002090601f0160209004810192826200071b576000855562000766565b82601f106200073657805160ff191683800117855562000766565b8280016001018555821562000766579182015b828111156200076657825182559160200191906001019062000749565b50620005019291505b808211156200050157600081556001016200076f565b634e487b7160e01b600052604160045260246000fd5b600082601f830112620007ad57600080fd5b81516001600160401b0380821115620007ca57620007ca62000785565b604051601f8301601f19908116603f01168101908282118183101715620007f557620007f562000785565b816040528381526020925086838588010111156200081257600080fd5b600091505b8382101562000836578582018301518183018401529082019062000817565b83821115620008485760008385830101525b9695505050505050565b6000806000606084860312156200086857600080fd5b83516001600160401b03808211156200088057600080fd5b6200088e878388016200079b565b94506020860151915080821115620008a557600080fd5b50620008b4868287016200079b565b925050604084015190509250925092565b634e487b7160e01b600052601160045260246000fd5b60008219821115620008f157620008f1620008c5565b500190565b6000828210156200090b576200090b620008c5565b500390565b600181811c908216806200092557607f821691505b602082108114156200094757634e487b7160e01b600052602260045260246000fd5b50919050565b60805160a05160c05160e05161010051610120516122626200099d60003960006113c00152600061140f015260006113ea015260006113430152600061136d0152600061139701526122626000f3fe608060405234801561001057600080fd5b506004361061018d5760003560e01c80636fcfff45116100e3578063a457c2d71161008c578063d505accf11610066578063d505accf14610389578063dd62ed3e1461039c578063f1127ed8146103e257600080fd5b8063a457c2d714610350578063a9059cbb14610363578063c3cda5201461037657600080fd5b80638e539e8c116100bd5780638e539e8c1461032257806395d89b41146103355780639ab24eb01461033d57600080fd5b80636fcfff45146102b157806370a08231146102d95780637ecebe001461030f57600080fd5b80633644e51511610145578063587cde1e1161011f578063587cde1e146102355780635c19a95c146102935780635d641847146102a857600080fd5b80633644e51514610207578063395093511461020f5780633a46b1a81461022257600080fd5b806318160ddd1161017657806318160ddd146101d357806323b872dd146101e5578063313ce567146101f857600080fd5b806306fdde0314610192578063095ea7b3146101b0575b600080fd5b61019a610434565b6040516101a79190611e3c565b60405180910390f35b6101c36101be366004611ed8565b6104c6565b60405190151581526020016101a7565b6002545b6040519081526020016101a7565b6101c36101f3366004611f02565b6104de565b604051601281526020016101a7565b6101d7610502565b6101c361021d366004611ed8565b610511565b6101d7610230366004611ed8565b61055d565b61026e610243366004611f3e565b73ffffffffffffffffffffffffffffffffffffffff9081166000908152600760205260409020541690565b60405173ffffffffffffffffffffffffffffffffffffffff90911681526020016101a7565b6102a66102a1366004611f3e565b6105e9565b005b6101d7600a5481565b6102c46102bf366004611f3e565b6105f6565b60405163ffffffff90911681526020016101a7565b6101d76102e7366004611f3e565b73ffffffffffffffffffffffffffffffffffffffff1660009081526020819052604090205490565b6101d761031d366004611f3e565b61062b565b6101d7610330366004611f59565b610656565b61019a6106b2565b6101d761034b366004611f3e565b6106c1565b6101c361035e366004611ed8565b61078c565b6101c3610371366004611ed8565b610843565b6102a6610384366004611f83565b610851565b6102a6610397366004611fdb565b610994565b6101d76103aa366004612045565b73ffffffffffffffffffffffffffffffffffffffff918216600090815260016020908152604080832093909416825291909152205490565b6103f56103f0366004612078565b610b1f565b60408051825163ffffffff1681526020928301517bffffffffffffffffffffffffffffffffffffffffffffffffffffffff1692810192909252016101a7565b606060038054610443906120b8565b80601f016020809104026020016040519081016040528092919081815260200182805461046f906120b8565b80156104bc5780601f10610491576101008083540402835291602001916104bc565b820191906000526020600020905b81548152906001019060200180831161049f57829003601f168201915b5050505050905090565b6000336104d4818585610ecc565b5060019392505050565b6000336104ec85828561104b565b6104f7858585611102565b506001949350505050565b600061050c611329565b905090565b33600081815260016020908152604080832073ffffffffffffffffffffffffffffffffffffffff871684529091528120549091906104d49082908690610558908790612135565b610ecc565b60004382106105b35760405162461bcd60e51b815260206004820152601f60248201527f4552433230566f7465733a20626c6f636b206e6f7420796574206d696e65640060448201526064015b60405180910390fd5b73ffffffffffffffffffffffffffffffffffffffff831660009081526008602052604090206105e2908361145d565b9392505050565b6105f3338261157e565b50565b73ffffffffffffffffffffffffffffffffffffffff811660009081526008602052604081205461062590610e00565b92915050565b73ffffffffffffffffffffffffffffffffffffffff8116600090815260056020526040812054610625565b60004382106106a75760405162461bcd60e51b815260206004820152601f60248201527f4552433230566f7465733a20626c6f636b206e6f7420796574206d696e65640060448201526064016105aa565b61062560098361145d565b606060048054610443906120b8565b73ffffffffffffffffffffffffffffffffffffffff811660009081526008602052604081205480156107645773ffffffffffffffffffffffffffffffffffffffff8316600090815260086020526040902061071d60018361214d565b8154811061072d5761072d612164565b60009182526020909120015464010000000090047bffffffffffffffffffffffffffffffffffffffffffffffffffffffff16610767565b60005b7bffffffffffffffffffffffffffffffffffffffffffffffffffffffff169392505050565b33600081815260016020908152604080832073ffffffffffffffffffffffffffffffffffffffff87168452909152812054909190838110156108365760405162461bcd60e51b815260206004820152602560248201527f45524332303a2064656372656173656420616c6c6f77616e63652062656c6f7760448201527f207a65726f00000000000000000000000000000000000000000000000000000060648201526084016105aa565b6104f78286868403610ecc565b6000336104d4818585611102565b834211156108a15760405162461bcd60e51b815260206004820152601d60248201527f4552433230566f7465733a207369676e6174757265206578706972656400000060448201526064016105aa565b604080517fe48329057bfd03d55e49b547132e39cffd9c1820ad7b9d4c5307691425d15adf602082015273ffffffffffffffffffffffffffffffffffffffff8816918101919091526060810186905260808101859052600090610928906109209060a0016040516020818303038152906040528051906020012061161c565b858585611685565b9050610933816116ad565b86146109815760405162461bcd60e51b815260206004820152601960248201527f4552433230566f7465733a20696e76616c6964206e6f6e63650000000000000060448201526064016105aa565b61098b818861157e565b50505050505050565b834211156109e45760405162461bcd60e51b815260206004820152601d60248201527f45524332305065726d69743a206578706972656420646561646c696e6500000060448201526064016105aa565b60007f6e71edae12b1b97f4d1f60370fef10105fa2faae0126114a169c64845d6126c9888888610a138c6116ad565b60408051602081019690965273ffffffffffffffffffffffffffffffffffffffff94851690860152929091166060840152608083015260a082015260c0810186905260e0016040516020818303038152906040528051906020012090506000610a7b8261161c565b90506000610a8b82878787611685565b90508973ffffffffffffffffffffffffffffffffffffffff168173ffffffffffffffffffffffffffffffffffffffff1614610b085760405162461bcd60e51b815260206004820152601e60248201527f45524332305065726d69743a20696e76616c6964207369676e6174757265000060448201526064016105aa565b610b138a8a8a610ecc565b50505050505050505050565b604080518082019091526000808252602082015273ffffffffffffffffffffffffffffffffffffffff83166000908152600860205260409020805463ffffffff8416908110610b7057610b70612164565b60009182526020918290206040805180820190915291015463ffffffff8116825264010000000090047bffffffffffffffffffffffffffffffffffffffffffffffffffffffff16918101919091529392505050565b610bcf8282610c77565b6002547bffffffffffffffffffffffffffffffffffffffffffffffffffffffff1015610c635760405162461bcd60e51b815260206004820152603060248201527f4552433230566f7465733a20746f74616c20737570706c79207269736b73206f60448201527f766572666c6f77696e6720766f7465730000000000000000000000000000000060648201526084016105aa565b610c716009610d5c836116e2565b50505050565b73ffffffffffffffffffffffffffffffffffffffff8216610cda5760405162461bcd60e51b815260206004820152601f60248201527f45524332303a206d696e7420746f20746865207a65726f20616464726573730060448201526064016105aa565b8060026000828254610cec9190612135565b909155505073ffffffffffffffffffffffffffffffffffffffff8216600081815260208181526040808320805486019055518481527fddf252ad1be2c89b69c2b068fc378daa952ba7f163c4a11628f55a4df523b3ef910160405180910390a3610d586000838361188a565b5050565b60006105e28284612135565b60007bffffffffffffffffffffffffffffffffffffffffffffffffffffffff821115610dfc5760405162461bcd60e51b815260206004820152602760248201527f53616665436173743a2076616c756520646f65736e27742066697420696e203260448201527f323420626974730000000000000000000000000000000000000000000000000060648201526084016105aa565b5090565b600063ffffffff821115610dfc5760405162461bcd60e51b815260206004820152602660248201527f53616665436173743a2076616c756520646f65736e27742066697420696e203360448201527f322062697473000000000000000000000000000000000000000000000000000060648201526084016105aa565b73ffffffffffffffffffffffffffffffffffffffff838116600090815260076020526040808220548584168352912054610ebb92918216911683611895565b505050565b60006105e2828461214d565b73ffffffffffffffffffffffffffffffffffffffff8316610f545760405162461bcd60e51b8152602060048201526024808201527f45524332303a20617070726f76652066726f6d20746865207a65726f2061646460448201527f726573730000000000000000000000000000000000000000000000000000000060648201526084016105aa565b73ffffffffffffffffffffffffffffffffffffffff8216610fdd5760405162461bcd60e51b815260206004820152602260248201527f45524332303a20617070726f766520746f20746865207a65726f20616464726560448201527f737300000000000000000000000000000000000000000000000000000000000060648201526084016105aa565b73ffffffffffffffffffffffffffffffffffffffff83811660008181526001602090815260408083209487168084529482529182902085905590518481527f8c5be1e5ebec7d5bd14f71427d1e84f3dd0314c0f7b2291e5b200ac8c7c3b925910160405180910390a3505050565b73ffffffffffffffffffffffffffffffffffffffff8381166000908152600160209081526040808320938616835292905220547fffffffffffffffffffffffffffffffffffffffffffffffffffffffffffffffff8114610c7157818110156110f55760405162461bcd60e51b815260206004820152601d60248201527f45524332303a20696e73756666696369656e7420616c6c6f77616e636500000060448201526064016105aa565b610c718484848403610ecc565b73ffffffffffffffffffffffffffffffffffffffff831661118b5760405162461bcd60e51b815260206004820152602560248201527f45524332303a207472616e736665722066726f6d20746865207a65726f20616460448201527f647265737300000000000000000000000000000000000000000000000000000060648201526084016105aa565b73ffffffffffffffffffffffffffffffffffffffff82166112145760405162461bcd60e51b815260206004820152602360248201527f45524332303a207472616e7366657220746f20746865207a65726f206164647260448201527f657373000000000000000000000000000000000000000000000000000000000060648201526084016105aa565b73ffffffffffffffffffffffffffffffffffffffff8316600090815260208190526040902054818110156112b05760405162461bcd60e51b815260206004820152602660248201527f45524332303a207472616e7366657220616d6f756e742065786365656473206260448201527f616c616e6365000000000000000000000000000000000000000000000000000060648201526084016105aa565b73ffffffffffffffffffffffffffffffffffffffff848116600081815260208181526040808320878703905593871680835291849020805487019055925185815290927fddf252ad1be2c89b69c2b068fc378daa952ba7f163c4a11628f55a4df523b3ef910160405180910390a3610c7184848461188a565b60003073ffffffffffffffffffffffffffffffffffffffff7f00000000000000000000000000000000000000000000000000000000000000001614801561138f57507f000000000000000000000000000000000000000000000000000000000000000046145b156113b957507f000000000000000000000000000000000000000000000000000000000000000090565b50604080517f00000000000000000000000000000000000000000000000000000000000000006020808301919091527f0000000000000000000000000000000000000000000000000000000000000000828401527f000000000000000000000000000000000000000000000000000000000000000060608301524660808301523060a0808401919091528351808403909101815260c0909201909252805191012090565b8154600090818160058111156114b757600061147884611a3a565b611482908561214d565b600088815260209020909150869082015463ffffffff1611156114a7578091506114b5565b6114b2816001612135565b92505b505b808210156115045760006114cb8383611b1f565b600088815260209020909150869082015463ffffffff1611156114f0578091506114fe565b6114fb816001612135565b92505b506114b7565b8015611553576115278661151960018461214d565b600091825260209091200190565b5464010000000090047bffffffffffffffffffffffffffffffffffffffffffffffffffffffff16611556565b60005b7bffffffffffffffffffffffffffffffffffffffffffffffffffffffff169695505050505050565b73ffffffffffffffffffffffffffffffffffffffff8281166000818152600760208181526040808420805485845282862054949093528787167fffffffffffffffffffffffff00000000000000000000000000000000000000008416811790915590519190951694919391928592917f3134e8a2e6d97e929a7e54011ea5485d7d196dd5f0ba4d4ef95803e8e3fc257f9190a4610c71828483611895565b6000610625611629611329565b836040517f19010000000000000000000000000000000000000000000000000000000000006020820152602281018390526042810182905260009060620160405160208183030381529060405280519060200120905092915050565b600080600061169687878787611b3a565b915091506116a381611c29565b5095945050505050565b73ffffffffffffffffffffffffffffffffffffffff811660009081526005602052604090208054600181018255905b50919050565b82546000908190818115611744576116ff8761151960018561214d565b60408051808201909152905463ffffffff8116825264010000000090047bffffffffffffffffffffffffffffffffffffffffffffffffffffffff166020820152611759565b60408051808201909152600080825260208201525b905080602001517bffffffffffffffffffffffffffffffffffffffffffffffffffffffff16935061178e84868863ffffffff16565b92506000821180156117a65750805163ffffffff1643145b15611800576117b483610d68565b6117c38861151960018661214d565b80547bffffffffffffffffffffffffffffffffffffffffffffffffffffffff929092166401000000000263ffffffff909216919091179055611880565b86604051806040016040528061181543610e00565b63ffffffff16815260200161182986610d68565b7bffffffffffffffffffffffffffffffffffffffffffffffffffffffff90811690915282546001810184556000938452602093849020835194909301519091166401000000000263ffffffff909316929092179101555b5050935093915050565b610ebb838383610e7c565b8173ffffffffffffffffffffffffffffffffffffffff168373ffffffffffffffffffffffffffffffffffffffff16141580156118d15750600081115b15610ebb5773ffffffffffffffffffffffffffffffffffffffff8316156119865773ffffffffffffffffffffffffffffffffffffffff83166000908152600860205260408120819061192690610ec0856116e2565b915091508473ffffffffffffffffffffffffffffffffffffffff167fdec2bacdd2f05b59de34da9b523dff8be42e5e38e818c82fdb0bae774387a724838360405161197b929190918252602082015260400190565b60405180910390a250505b73ffffffffffffffffffffffffffffffffffffffff821615610ebb5773ffffffffffffffffffffffffffffffffffffffff8216600090815260086020526040812081906119d690610d5c856116e2565b915091508373ffffffffffffffffffffffffffffffffffffffff167fdec2bacdd2f05b59de34da9b523dff8be42e5e38e818c82fdb0bae774387a7248383604051611a2b929190918252602082015260400190565b60405180910390a25050505050565b600081611a4957506000919050565b60006001611a5684611d92565b901c6001901b90506001818481611a6f57611a6f612193565b048201901c90506001818481611a8757611a87612193565b048201901c90506001818481611a9f57611a9f612193565b048201901c90506001818481611ab757611ab7612193565b048201901c90506001818481611acf57611acf612193565b048201901c90506001818481611ae757611ae7612193565b048201901c90506001818481611aff57611aff612193565b048201901c90506105e281828581611b1957611b19612193565b04611e26565b6000611b2e60028484186121c2565b6105e290848416612135565b6000807f7fffffffffffffffffffffffffffffff5d576e7357a4501ddfe92f46681b20a0831115611b715750600090506003611c20565b6040805160008082526020820180845289905260ff881692820192909252606081018690526080810185905260019060a0016020604051602081039080840390855afa158015611bc5573d6000803e3d6000fd5b50506040517fffffffffffffffffffffffffffffffffffffffffffffffffffffffffffffffe0015191505073ffffffffffffffffffffffffffffffffffffffff8116611c1957600060019250925050611c20565b9150600090505b94509492505050565b6000816004811115611c3d57611c3d6121fd565b1415611c465750565b6001816004811115611c5a57611c5a6121fd565b1415611ca85760405162461bcd60e51b815260206004820152601860248201527f45434453413a20696e76616c6964207369676e6174757265000000000000000060448201526064016105aa565b6002816004811115611cbc57611cbc6121fd565b1415611d0a5760405162461bcd60e51b815260206004820152601f60248201527f45434453413a20696e76616c6964207369676e6174757265206c656e6774680060448201526064016105aa565b6003816004811115611d1e57611d1e6121fd565b14156105f35760405162461bcd60e51b815260206004820152602260248201527f45434453413a20696e76616c6964207369676e6174757265202773272076616c60448201527f756500000000000000000000000000000000000000000000000000000000000060648201526084016105aa565b600080608083901c15611da757608092831c92015b604083901c15611db957604092831c92015b602083901c15611dcb57602092831c92015b601083901c15611ddd57601092831c92015b600883901c15611def57600892831c92015b600483901c15611e0157600492831c92015b600283901c15611e1357600292831c92015b600183901c156106255760010192915050565b6000818310611e3557816105e2565b5090919050565b600060208083528351808285015260005b81811015611e6957858101830151858201604001528201611e4d565b81811115611e7b576000604083870101525b50601f017fffffffffffffffffffffffffffffffffffffffffffffffffffffffffffffffe016929092016040019392505050565b803573ffffffffffffffffffffffffffffffffffffffff81168114611ed357600080fd5b919050565b60008060408385031215611eeb57600080fd5b611ef483611eaf565b946020939093013593505050565b600080600060608486031215611f1757600080fd5b611f2084611eaf565b9250611f2e60208501611eaf565b9150604084013590509250925092565b600060208284031215611f5057600080fd5b6105e282611eaf565b600060208284031215611f6b57600080fd5b5035919050565b803560ff81168114611ed357600080fd5b60008060008060008060c08789031215611f9c57600080fd5b611fa587611eaf565b95506020870135945060408701359350611fc160608801611f72565b92506080870135915060a087013590509295509295509295565b600080600080600080600060e0888a031215611ff657600080fd5b611fff88611eaf565b965061200d60208901611eaf565b9550604088013594506060880135935061202960808901611f72565b925060a0880135915060c0880135905092959891949750929550565b6000806040838503121561205857600080fd5b61206183611eaf565b915061206f60208401611eaf565b90509250929050565b6000806040838503121561208b57600080fd5b61209483611eaf565b9150602083013563ffffffff811681146120ad57600080fd5b809150509250929050565b600181811c908216806120cc57607f821691505b602082108114156116dc577f4e487b7100000000000000000000000000000000000000000000000000000000600052602260045260246000fd5b7f4e487b7100000000000000000000000000000000000000000000000000000000600052601160045260246000fd5b6000821982111561214857612148612106565b500190565b60008282101561215f5761215f612106565b500390565b7f4e487b7100000000000000000000000000000000000000000000000000000000600052603260045260246000fd5b7f4e487b7100000000000000000000000000000000000000000000000000000000600052601260045260246000fd5b6000826121f8577f4e487b7100000000000000000000000000000000000000000000000000000000600052601260045260246000fd5b500490565b7f4e487b7100000000000000000000000000000000000000000000000000000000600052602160045260246000fdfea2646970667358221220bdeb330b1188688500668afcc72728284490418c5f80589df376fdee003108a864736f6c63430008090033dec2bacdd2f05b59de34da9b523dff8be42e5e38e818c82fdb0bae774387a724",
  "linkReferences": {},
  "deployedLinkReferences": {}
}