{
  "_format": "hh-sol-artifact-1",
  "contractName": "GovernorContract",
  "sourceName": "contracts/governor/GovernorContract.sol",
  "abi": [
    {
      "inputs": [
        {
          "internalType": "contract IVotes",
          "name": "_token",
          "type": "address"
        },
        {
          "internalType": "contract TimelockController",
          "name": "_timelock",
          "type": "address"
        },
        {
          "internalType": "uint256",
          "name": "_votingDelay",
          "type": "uint256"
        },
        {
          "internalType": "uint256",
          "name": "_votingPeriod",
          "type": "uint256"
        }
      ],
      "stateMutability": "nonpayable",
      "type": "constructor"
    },
    {
      "inputs": [],
      "name": "Empty",
      "type": "error"
    },
    {
      "anonymous": false,
      "inputs": [
        {
          "indexed": false,
          "internalType": "uint256",
          "name": "proposalId",
          "type": "uint256"
        }
      ],
      "name": "ProposalCanceled",
      "type": "event"
    },
    {
      "anonymous": false,
      "inputs": [
        {
          "indexed": false,
          "internalType": "uint256",
          "name": "proposalId",
          "type": "uint256"
        },
        {
          "indexed": false,
          "internalType": "address",
          "name": "proposer",
          "type": "address"
        },
        {
          "indexed": false,
          "internalType": "address[]",
          "name": "targets",
          "type": "address[]"
        },
        {
          "indexed": false,
          "internalType": "uint256[]",
          "name": "values",
          "type": "uint256[]"
        },
        {
          "indexed": false,
          "internalType": "string[]",
          "name": "signatures",
          "type": "string[]"
        },
        {
          "indexed": false,
          "internalType": "bytes[]",
          "name": "calldatas",
          "type": "bytes[]"
        },
        {
          "indexed": false,
          "internalType": "uint256",
          "name": "startBlock",
          "type": "uint256"
        },
        {
          "indexed": false,
          "internalType": "uint256",
          "name": "endBlock",
          "type": "uint256"
        },
        {
          "indexed": false,
          "internalType": "string",
          "name": "description",
          "type": "string"
        }
      ],
      "name": "ProposalCreated",
      "type": "event"
    },
    {
      "anonymous": false,
      "inputs": [
        {
          "indexed": false,
          "internalType": "uint256",
          "name": "proposalId",
          "type": "uint256"
        }
      ],
      "name": "ProposalExecuted",
      "type": "event"
    },
    {
      "anonymous": false,
      "inputs": [
        {
          "indexed": false,
          "internalType": "uint256",
          "name": "proposalId",
          "type": "uint256"
        },
        {
          "indexed": false,
          "internalType": "uint256",
          "name": "eta",
          "type": "uint256"
        }
      ],
      "name": "ProposalQueued",
      "type": "event"
    },
    {
      "anonymous": false,
      "inputs": [
        {
          "indexed": false,
          "internalType": "uint256",
          "name": "oldProposalThreshold",
          "type": "uint256"
        },
        {
          "indexed": false,
          "internalType": "uint256",
          "name": "newProposalThreshold",
          "type": "uint256"
        }
      ],
      "name": "ProposalThresholdSet",
      "type": "event"
    },
    {
      "anonymous": false,
      "inputs": [
        {
          "indexed": false,
          "internalType": "address",
          "name": "oldTimelock",
          "type": "address"
        },
        {
          "indexed": false,
          "internalType": "address",
          "name": "newTimelock",
          "type": "address"
        }
      ],
      "name": "TimelockChange",
      "type": "event"
    },
    {
      "anonymous": false,
      "inputs": [
        {
          "indexed": true,
          "internalType": "address",
          "name": "voter",
          "type": "address"
        },
        {
          "indexed": false,
          "internalType": "uint256",
          "name": "proposalId",
          "type": "uint256"
        },
        {
          "indexed": false,
          "internalType": "uint8",
          "name": "support",
          "type": "uint8"
        },
        {
          "indexed": false,
          "internalType": "uint256",
          "name": "weight",
          "type": "uint256"
        },
        {
          "indexed": false,
          "internalType": "string",
          "name": "reason",
          "type": "string"
        }
      ],
      "name": "VoteCast",
      "type": "event"
    },
    {
      "anonymous": false,
      "inputs": [
        {
          "indexed": true,
          "internalType": "address",
          "name": "voter",
          "type": "address"
        },
        {
          "indexed": false,
          "internalType": "uint256",
          "name": "proposalId",
          "type": "uint256"
        },
        {
          "indexed": false,
          "internalType": "uint8",
          "name": "support",
          "type": "uint8"
        },
        {
          "indexed": false,
          "internalType": "uint256",
          "name": "weight",
          "type": "uint256"
        },
        {
          "indexed": false,
          "internalType": "string",
          "name": "reason",
          "type": "string"
        },
        {
          "indexed": false,
          "internalType": "bytes",
          "name": "params",
          "type": "bytes"
        }
      ],
      "name": "VoteCastWithParams",
      "type": "event"
    },
    {
      "anonymous": false,
      "inputs": [
        {
          "indexed": false,
          "internalType": "uint256",
          "name": "oldVotingDelay",
          "type": "uint256"
        },
        {
          "indexed": false,
          "internalType": "uint256",
          "name": "newVotingDelay",
          "type": "uint256"
        }
      ],
      "name": "VotingDelaySet",
      "type": "event"
    },
    {
      "anonymous": false,
      "inputs": [
        {
          "indexed": false,
          "internalType": "uint256",
          "name": "oldVotingPeriod",
          "type": "uint256"
        },
        {
          "indexed": false,
          "internalType": "uint256",
          "name": "newVotingPeriod",
          "type": "uint256"
        }
      ],
      "name": "VotingPeriodSet",
      "type": "event"
    },
    {
      "inputs": [],
      "name": "BALLOT_TYPEHASH",
      "outputs": [
        {
          "internalType": "bytes32",
          "name": "",
          "type": "bytes32"
        }
      ],
      "stateMutability": "view",
      "type": "function"
    },
    {
      "inputs": [],
      "name": "COUNTING_MODE",
      "outputs": [
        {
          "internalType": "string",
          "name": "",
          "type": "string"
        }
      ],
      "stateMutability": "pure",
      "type": "function"
    },
    {
      "inputs": [],
      "name": "EXTENDED_BALLOT_TYPEHASH",
      "outputs": [
        {
          "internalType": "bytes32",
          "name": "",
          "type": "bytes32"
        }
      ],
      "stateMutability": "view",
      "type": "function"
    },
    {
      "inputs": [
        {
          "internalType": "uint256",
          "name": "proposalId",
          "type": "uint256"
        },
        {
          "internalType": "uint8",
          "name": "support",
          "type": "uint8"
        }
      ],
      "name": "castVote",
      "outputs": [
        {
          "internalType": "uint256",
          "name": "",
          "type": "uint256"
        }
      ],
      "stateMutability": "nonpayable",
      "type": "function"
    },
    {
      "inputs": [
        {
          "internalType": "uint256",
          "name": "proposalId",
          "type": "uint256"
        },
        {
          "internalType": "uint8",
          "name": "support",
          "type": "uint8"
        },
        {
          "internalType": "uint8",
          "name": "v",
          "type": "uint8"
        },
        {
          "internalType": "bytes32",
          "name": "r",
          "type": "bytes32"
        },
        {
          "internalType": "bytes32",
          "name": "s",
          "type": "bytes32"
        }
      ],
      "name": "castVoteBySig",
      "outputs": [
        {
          "internalType": "uint256",
          "name": "",
          "type": "uint256"
        }
      ],
      "stateMutability": "nonpayable",
      "type": "function"
    },
    {
      "inputs": [
        {
          "internalType": "uint256",
          "name": "proposalId",
          "type": "uint256"
        },
        {
          "internalType": "uint8",
          "name": "support",
          "type": "uint8"
        },
        {
          "internalType": "string",
          "name": "reason",
          "type": "string"
        }
      ],
      "name": "castVoteWithReason",
      "outputs": [
        {
          "internalType": "uint256",
          "name": "",
          "type": "uint256"
        }
      ],
      "stateMutability": "nonpayable",
      "type": "function"
    },
    {
      "inputs": [
        {
          "internalType": "uint256",
          "name": "proposalId",
          "type": "uint256"
        },
        {
          "internalType": "uint8",
          "name": "support",
          "type": "uint8"
        },
        {
          "internalType": "string",
          "name": "reason",
          "type": "string"
        },
        {
          "internalType": "bytes",
          "name": "params",
          "type": "bytes"
        }
      ],
      "name": "castVoteWithReasonAndParams",
      "outputs": [
        {
          "internalType": "uint256",
          "name": "",
          "type": "uint256"
        }
      ],
      "stateMutability": "nonpayable",
      "type": "function"
    },
    {
      "inputs": [
        {
          "internalType": "uint256",
          "name": "proposalId",
          "type": "uint256"
        },
        {
          "internalType": "uint8",
          "name": "support",
          "type": "uint8"
        },
        {
          "internalType": "string",
          "name": "reason",
          "type": "string"
        },
        {
          "internalType": "bytes",
          "name": "params",
          "type": "bytes"
        },
        {
          "internalType": "uint8",
          "name": "v",
          "type": "uint8"
        },
        {
          "internalType": "bytes32",
          "name": "r",
          "type": "bytes32"
        },
        {
          "internalType": "bytes32",
          "name": "s",
          "type": "bytes32"
        }
      ],
      "name": "castVoteWithReasonAndParamsBySig",
      "outputs": [
        {
          "internalType": "uint256",
          "name": "",
          "type": "uint256"
        }
      ],
      "stateMutability": "nonpayable",
      "type": "function"
    },
    {
      "inputs": [
        {
          "internalType": "address[]",
          "name": "targets",
          "type": "address[]"
        },
        {
          "internalType": "uint256[]",
          "name": "values",
          "type": "uint256[]"
        },
        {
          "internalType": "bytes[]",
          "name": "calldatas",
          "type": "bytes[]"
        },
        {
          "internalType": "bytes32",
          "name": "descriptionHash",
          "type": "bytes32"
        }
      ],
      "name": "execute",
      "outputs": [
        {
          "internalType": "uint256",
          "name": "",
          "type": "uint256"
        }
      ],
      "stateMutability": "payable",
      "type": "function"
    },
    {
      "inputs": [
        {
          "internalType": "address",
          "name": "account",
          "type": "address"
        },
        {
          "internalType": "uint256",
          "name": "blockNumber",
          "type": "uint256"
        }
      ],
      "name": "getVotes",
      "outputs": [
        {
          "internalType": "uint256",
          "name": "",
          "type": "uint256"
        }
      ],
      "stateMutability": "view",
      "type": "function"
    },
    {
      "inputs": [
        {
          "internalType": "address",
          "name": "account",
          "type": "address"
        },
        {
          "internalType": "uint256",
          "name": "blockNumber",
          "type": "uint256"
        },
        {
          "internalType": "bytes",
          "name": "params",
          "type": "bytes"
        }
      ],
      "name": "getVotesWithParams",
      "outputs": [
        {
          "internalType": "uint256",
          "name": "",
          "type": "uint256"
        }
      ],
      "stateMutability": "view",
      "type": "function"
    },
    {
      "inputs": [
        {
          "internalType": "uint256",
          "name": "proposalId",
          "type": "uint256"
        },
        {
          "internalType": "address",
          "name": "account",
          "type": "address"
        }
      ],
      "name": "hasVoted",
      "outputs": [
        {
          "internalType": "bool",
          "name": "",
          "type": "bool"
        }
      ],
      "stateMutability": "view",
      "type": "function"
    },
    {
      "inputs": [
        {
          "internalType": "address[]",
          "name": "targets",
          "type": "address[]"
        },
        {
          "internalType": "uint256[]",
          "name": "values",
          "type": "uint256[]"
        },
        {
          "internalType": "bytes[]",
          "name": "calldatas",
          "type": "bytes[]"
        },
        {
          "internalType": "bytes32",
          "name": "descriptionHash",
          "type": "bytes32"
        }
      ],
      "name": "hashProposal",
      "outputs": [
        {
          "internalType": "uint256",
          "name": "",
          "type": "uint256"
        }
      ],
      "stateMutability": "pure",
      "type": "function"
    },
    {
      "inputs": [],
      "name": "name",
      "outputs": [
        {
          "internalType": "string",
          "name": "",
          "type": "string"
        }
      ],
      "stateMutability": "view",
      "type": "function"
    },
    {
      "inputs": [
        {
          "internalType": "address",
          "name": "",
          "type": "address"
        },
        {
          "internalType": "address",
          "name": "",
          "type": "address"
        },
        {
          "internalType": "uint256[]",
          "name": "",
          "type": "uint256[]"
        },
        {
          "internalType": "uint256[]",
          "name": "",
          "type": "uint256[]"
        },
        {
          "internalType": "bytes",
          "name": "",
          "type": "bytes"
        }
      ],
      "name": "onERC1155BatchReceived",
      "outputs": [
        {
          "internalType": "bytes4",
          "name": "",
          "type": "bytes4"
        }
      ],
      "stateMutability": "nonpayable",
      "type": "function"
    },
    {
      "inputs": [
        {
          "internalType": "address",
          "name": "",
          "type": "address"
        },
        {
          "internalType": "address",
          "name": "",
          "type": "address"
        },
        {
          "internalType": "uint256",
          "name": "",
          "type": "uint256"
        },
        {
          "internalType": "uint256",
          "name": "",
          "type": "uint256"
        },
        {
          "internalType": "bytes",
          "name": "",
          "type": "bytes"
        }
      ],
      "name": "onERC1155Received",
      "outputs": [
        {
          "internalType": "bytes4",
          "name": "",
          "type": "bytes4"
        }
      ],
      "stateMutability": "nonpayable",
      "type": "function"
    },
    {
      "inputs": [
        {
          "internalType": "address",
          "name": "",
          "type": "address"
        },
        {
          "internalType": "address",
          "name": "",
          "type": "address"
        },
        {
          "internalType": "uint256",
          "name": "",
          "type": "uint256"
        },
        {
          "internalType": "bytes",
          "name": "",
          "type": "bytes"
        }
      ],
      "name": "onERC721Received",
      "outputs": [
        {
          "internalType": "bytes4",
          "name": "",
          "type": "bytes4"
        }
      ],
      "stateMutability": "nonpayable",
      "type": "function"
    },
    {
      "inputs": [
        {
          "internalType": "uint256",
          "name": "proposalId",
          "type": "uint256"
        }
      ],
      "name": "proposalDeadline",
      "outputs": [
        {
          "internalType": "uint256",
          "name": "",
          "type": "uint256"
        }
      ],
      "stateMutability": "view",
      "type": "function"
    },
    {
      "inputs": [
        {
          "internalType": "uint256",
          "name": "proposalId",
          "type": "uint256"
        }
      ],
      "name": "proposalEta",
      "outputs": [
        {
          "internalType": "uint256",
          "name": "",
          "type": "uint256"
        }
      ],
      "stateMutability": "view",
      "type": "function"
    },
    {
      "inputs": [
        {
          "internalType": "uint256",
          "name": "proposalId",
          "type": "uint256"
        }
      ],
      "name": "proposalSnapshot",
      "outputs": [
        {
          "internalType": "uint256",
          "name": "",
          "type": "uint256"
        }
      ],
      "stateMutability": "view",
      "type": "function"
    },
    {
      "inputs": [],
      "name": "proposalThreshold",
      "outputs": [
        {
          "internalType": "uint256",
          "name": "",
          "type": "uint256"
        }
      ],
      "stateMutability": "view",
      "type": "function"
    },
    {
      "inputs": [
        {
          "internalType": "uint256",
          "name": "proposalId",
          "type": "uint256"
        }
      ],
      "name": "proposalVotes",
      "outputs": [
        {
          "internalType": "uint256",
          "name": "againstVotes",
          "type": "uint256"
        },
        {
          "internalType": "uint256",
          "name": "forVotes",
          "type": "uint256"
        },
        {
          "internalType": "uint256",
          "name": "abstainVotes",
          "type": "uint256"
        }
      ],
      "stateMutability": "view",
      "type": "function"
    },
    {
      "inputs": [
        {
          "internalType": "address[]",
          "name": "targets",
          "type": "address[]"
        },
        {
          "internalType": "uint256[]",
          "name": "values",
          "type": "uint256[]"
        },
        {
          "internalType": "bytes[]",
          "name": "calldatas",
          "type": "bytes[]"
        },
        {
          "internalType": "string",
          "name": "description",
          "type": "string"
        }
      ],
      "name": "propose",
      "outputs": [
        {
          "internalType": "uint256",
          "name": "",
          "type": "uint256"
        }
      ],
      "stateMutability": "nonpayable",
      "type": "function"
    },
    {
      "inputs": [
        {
          "internalType": "address[]",
          "name": "targets",
          "type": "address[]"
        },
        {
          "internalType": "uint256[]",
          "name": "values",
          "type": "uint256[]"
        },
        {
          "internalType": "bytes[]",
          "name": "calldatas",
          "type": "bytes[]"
        },
        {
          "internalType": "bytes32",
          "name": "descriptionHash",
          "type": "bytes32"
        }
      ],
      "name": "queue",
      "outputs": [
        {
          "internalType": "uint256",
          "name": "",
          "type": "uint256"
        }
      ],
      "stateMutability": "nonpayable",
      "type": "function"
    },
    {
      "inputs": [
        {
          "internalType": "uint256",
          "name": "blockNumber",
          "type": "uint256"
        }
      ],
      "name": "quorum",
      "outputs": [
        {
          "internalType": "uint256",
          "name": "",
          "type": "uint256"
        }
      ],
      "stateMutability": "pure",
      "type": "function"
    },
    {
      "inputs": [
        {
          "internalType": "address",
          "name": "target",
          "type": "address"
        },
        {
          "internalType": "uint256",
          "name": "value",
          "type": "uint256"
        },
        {
          "internalType": "bytes",
          "name": "data",
          "type": "bytes"
        }
      ],
      "name": "relay",
      "outputs": [],
      "stateMutability": "payable",
      "type": "function"
    },
    {
      "inputs": [
        {
          "internalType": "uint256",
          "name": "newProposalThreshold",
          "type": "uint256"
        }
      ],
      "name": "setProposalThreshold",
      "outputs": [],
      "stateMutability": "nonpayable",
      "type": "function"
    },
    {
      "inputs": [
        {
          "internalType": "uint256",
          "name": "newVotingDelay",
          "type": "uint256"
        }
      ],
      "name": "setVotingDelay",
      "outputs": [],
      "stateMutability": "nonpayable",
      "type": "function"
    },
    {
      "inputs": [
        {
          "internalType": "uint256",
          "name": "newVotingPeriod",
          "type": "uint256"
        }
      ],
      "name": "setVotingPeriod",
      "outputs": [],
      "stateMutability": "nonpayable",
      "type": "function"
    },
    {
      "inputs": [
        {
          "internalType": "uint256",
          "name": "proposalId",
          "type": "uint256"
        }
      ],
      "name": "state",
      "outputs": [
        {
          "internalType": "enum IGovernor.ProposalState",
          "name": "",
          "type": "uint8"
        }
      ],
      "stateMutability": "view",
      "type": "function"
    },
    {
      "inputs": [
        {
          "internalType": "bytes4",
          "name": "interfaceId",
          "type": "bytes4"
        }
      ],
      "name": "supportsInterface",
      "outputs": [
        {
          "internalType": "bool",
          "name": "",
          "type": "bool"
        }
      ],
      "stateMutability": "view",
      "type": "function"
    },
    {
      "inputs": [],
      "name": "timelock",
      "outputs": [
        {
          "internalType": "address",
          "name": "",
          "type": "address"
        }
      ],
      "stateMutability": "view",
      "type": "function"
    },
    {
      "inputs": [],
      "name": "token",
      "outputs": [
        {
          "internalType": "contract IVotes",
          "name": "",
          "type": "address"
        }
      ],
      "stateMutability": "view",
      "type": "function"
    },
    {
      "inputs": [
        {
          "internalType": "contract TimelockController",
          "name": "newTimelock",
          "type": "address"
        }
      ],
      "name": "updateTimelock",
      "outputs": [],
      "stateMutability": "nonpayable",
      "type": "function"
    },
    {
      "inputs": [],
      "name": "version",
      "outputs": [
        {
          "internalType": "string",
          "name": "",
          "type": "string"
        }
      ],
      "stateMutability": "view",
      "type": "function"
    },
    {
      "inputs": [],
      "name": "votingDelay",
      "outputs": [
        {
          "internalType": "uint256",
          "name": "",
          "type": "uint256"
        }
      ],
      "stateMutability": "view",
      "type": "function"
    },
    {
      "inputs": [],
      "name": "votingPeriod",
      "outputs": [
        {
          "internalType": "uint256",
          "name": "",
          "type": "uint256"
        }
      ],
      "stateMutability": "view",
      "type": "function"
    },
    {
      "stateMutability": "payable",
      "type": "receive"
    }
  ],
  "bytecode": "0x6101606040523480156200001257600080fd5b50604051620040df380380620040df8339810160408190526200003591620003d7565b82848383670de0b6b3a76400006040518060400160405280601081526020016f11dbdd995c9b9bdc90dbdb9d1c9858dd60821b815250806200007c6200016c60201b60201c565b815160208084019190912082518383012060e08290526101008190524660a0818152604080517f8b73c3c69bb8fe3d512ecc4cf759cc79239f7b179b0ffacaa9a75d522b39400f81880181905281830187905260608201869052608082019490945230818401528151808203909301835260c00190528051940193909320919290916080523060c052610120525050825162000122925060009150602084019062000318565b506200013090508362000187565b6200013b82620001c8565b62000146816200026e565b5050506001600160a01b0316610140526200016181620002af565b505050505062000461565b6040805180820190915260018152603160f81b602082015290565b60045460408051918252602082018390527fc565b045403dc03c2eea82b81a0465edad9e2e7fc4d97e11421c209da93d7a93910160405180910390a1600455565b600081116200022d5760405162461bcd60e51b815260206004820152602760248201527f476f7665726e6f7253657474696e67733a20766f74696e6720706572696f6420604482015266746f6f206c6f7760c81b606482015260840160405180910390fd5b60055460408051918252602082018390527f7e3f7f0708a84de9203036abaa450dccc85ad5ff52f78c170f3edb55cf5e8828910160405180910390a1600555565b60065460408051918252602082018390527fccb45da8d5717e6c4544694297c4ba5cf151d455c9bb0ed4fc7a38411bc05461910160405180910390a1600655565b600854604080516001600160a01b03928316815291831660208301527f08f74ea46ef7894f65eabfb5e6e695de773a000b47c529ab559178069b226401910160405180910390a1600880546001600160a01b0319166001600160a01b0392909216919091179055565b828054620003269062000424565b90600052602060002090601f0160209004810192826200034a576000855562000395565b82601f106200036557805160ff191683800117855562000395565b8280016001018555821562000395579182015b828111156200039557825182559160200191906001019062000378565b50620003a3929150620003a7565b5090565b5b80821115620003a35760008155600101620003a8565b6001600160a01b0381168114620003d457600080fd5b50565b60008060008060808587031215620003ee57600080fd5b8451620003fb81620003be565b60208601519094506200040e81620003be565b6040860151606090960151949790965092505050565b600181811c908216806200043957607f821691505b602082108114156200045b57634e487b7160e01b600052602260045260246000fd5b50919050565b60805160a05160c05160e051610100516101205161014051613c1c620004c3600039600081816108df01526121c8015260006125b601526000612605015260006125e001526000612539015260006125630152600061258d0152613c1c6000f3fe60806040526004361061026e5760003560e01c80637b3c71d311610153578063c59057e4116100cb578063eb9019d41161007f578063f23a6e6111610064578063f23a6e6114610860578063f8ce560a146108a5578063fc0c546a146108cd57600080fd5b8063eb9019d414610820578063ece40cc11461084057600080fd5b8063dd4e2ba5116100b0578063dd4e2ba514610786578063deaaa7cc146107cc578063ea0217cf1461080057600080fd5b8063c59057e41461071a578063d33219b41461073a57600080fd5b8063ab58fb8e11610122578063bc197c8111610107578063bc197c81146106a2578063c01f9e37146106e7578063c28bc2fa1461070757600080fd5b8063ab58fb8e1461066d578063b58131b01461068d57600080fd5b80637b3c71d3146105ed5780637d5e81e21461060d5780639a802a6d1461062d578063a890c9101461064d57600080fd5b80633932abb1116101e6578063544ffc9c116101b5578063567813881161019a578063567813881461058d5780635f398a14146105ad57806370b0f660146105cd57600080fd5b8063544ffc9c146104f257806354fd4d501461054757600080fd5b80633932abb1146104395780633bccf4fd1461044e5780633e4f49e61461046e578063438596321461049b57600080fd5b8063150b7a021161023d5780632656227d116102225780632656227d146103d25780632d63f693146103e55780632fe3e2611461040557600080fd5b8063150b7a021461033d578063160cbed7146103b257600080fd5b806301ffc9a7146102a357806302a251a3146102d857806303420181146102fb57806306fdde031461031b57600080fd5b3661029e573061027c610901565b73ffffffffffffffffffffffffffffffffffffffff161461029c57600080fd5b005b600080fd5b3480156102af57600080fd5b506102c36102be366004612d3f565b610927565b60405190151581526020015b60405180910390f35b3480156102e457600080fd5b506102ed610938565b6040519081526020016102cf565b34801561030757600080fd5b506102ed610316366004612eb8565b610943565b34801561032757600080fd5b50610330610a3b565b6040516102cf9190612fac565b34801561034957600080fd5b50610381610358366004612fe1565b7f150b7a0200000000000000000000000000000000000000000000000000000000949350505050565b6040517fffffffff0000000000000000000000000000000000000000000000000000000090911681526020016102cf565b3480156103be57600080fd5b506102ed6103cd3660046131c0565b610acd565b6102ed6103e03660046131c0565b610db8565b3480156103f157600080fd5b506102ed610400366004613250565b610f19565b34801561041157600080fd5b506102ed7fb3b3f3b703cd84ce352197dcff232b1b5d3cfb2025ce47cf04742d0651f1af8881565b34801561044557600080fd5b506102ed610f52565b34801561045a57600080fd5b506102ed610469366004613269565b610f5d565b34801561047a57600080fd5b5061048e610489366004613250565b610fd3565b6040516102cf91906132e6565b3480156104a757600080fd5b506102c36104b6366004613327565b600082815260076020908152604080832073ffffffffffffffffffffffffffffffffffffffff8516845260030190915290205460ff1692915050565b3480156104fe57600080fd5b5061052c61050d366004613250565b6000908152600760205260409020805460018201546002909201549092565b604080519384526020840192909252908201526060016102cf565b34801561055357600080fd5b5060408051808201909152600181527f31000000000000000000000000000000000000000000000000000000000000006020820152610330565b34801561059957600080fd5b506102ed6105a8366004613357565b610fde565b3480156105b957600080fd5b506102ed6105c8366004613383565b611007565b3480156105d957600080fd5b5061029c6105e8366004613250565b611051565b3480156105f957600080fd5b506102ed610608366004613407565b611137565b34801561061957600080fd5b506102ed610628366004613461565b611189565b34801561063957600080fd5b506102ed610648366004613516565b6111a0565b34801561065957600080fd5b5061029c61066836600461356f565b6111b7565b34801561067957600080fd5b506102ed610688366004613250565b61129a565b34801561069957600080fd5b506102ed611369565b3480156106ae57600080fd5b506103816106bd36600461358c565b7fbc197c810000000000000000000000000000000000000000000000000000000095945050505050565b3480156106f357600080fd5b506102ed610702366004613250565b611374565b61029c610715366004613620565b6113a4565b34801561072657600080fd5b506102ed6107353660046131c0565b61151c565b34801561074657600080fd5b5060085473ffffffffffffffffffffffffffffffffffffffff165b60405173ffffffffffffffffffffffffffffffffffffffff90911681526020016102cf565b34801561079257600080fd5b506040805180820190915260208082527f737570706f72743d627261766f2671756f72756d3d666f722c6162737461696e90820152610330565b3480156107d857600080fd5b506102ed7f150214d74d59b7d1e90c73fc22ef3d991dd0a76b046543d4d80ab92d2a50328f81565b34801561080c57600080fd5b5061029c61081b366004613250565b611556565b34801561082c57600080fd5b506102ed61083b366004613664565b611639565b34801561084c57600080fd5b5061029c61085b366004613250565b61165a565b34801561086c57600080fd5b5061038161087b366004613690565b7ff23a6e610000000000000000000000000000000000000000000000000000000095945050505050565b3480156108b157600080fd5b506102ed6108c0366004613250565b506729a2241af62c000090565b3480156108d957600080fd5b506107617f000000000000000000000000000000000000000000000000000000000000000081565b600061092260085473ffffffffffffffffffffffffffffffffffffffff1690565b905090565b60006109328261173d565b92915050565b600061092260055490565b6000806109e76109df7fb3b3f3b703cd84ce352197dcff232b1b5d3cfb2025ce47cf04742d0651f1af888c8c8c8c60405161097f9291906136f9565b60405180910390208b805190602001206040516020016109c4959493929190948552602085019390935260ff9190911660408401526060830152608082015260a00190565b60405160208183030381529060405280519060200120611793565b8686866117fc565b9050610a2d8a828b8b8b8080601f0160208091040260200160405190810160405280939291908181526020018383808284376000920191909152508d925061181a915050565b9a9950505050505050505050565b606060008054610a4a90613709565b80601f0160208091040260200160405190810160405280929190818152602001828054610a7690613709565b8015610ac35780601f10610a9857610100808354040283529160200191610ac3565b820191906000526020600020905b815481529060010190602001808311610aa657829003601f168201915b5050505050905090565b600080610adc8686868661151c565b90506004610ae982610fd3565b6007811115610afa57610afa6132b7565b14610b725760405162461bcd60e51b815260206004820152602160248201527f476f7665726e6f723a2070726f706f73616c206e6f742073756363657373667560448201527f6c0000000000000000000000000000000000000000000000000000000000000060648201526084015b60405180910390fd5b600854604080517ff27a0c92000000000000000000000000000000000000000000000000000000008152905160009273ffffffffffffffffffffffffffffffffffffffff169163f27a0c92916004808301926020929190829003018186803b158015610bdd57600080fd5b505afa158015610bf1573d6000803e3d6000fd5b505050506040513d601f19601f82011682018060405250810190610c15919061375d565b6008546040517fb1c5f42700000000000000000000000000000000000000000000000000000000815291925073ffffffffffffffffffffffffffffffffffffffff169063b1c5f42790610c75908a908a908a906000908b9060040161384c565b60206040518083038186803b158015610c8d57600080fd5b505afa158015610ca1573d6000803e3d6000fd5b505050506040513d601f19601f82011682018060405250810190610cc5919061375d565b6000838152600960205260408082209290925560085491517f8f2a0bb000000000000000000000000000000000000000000000000000000000815273ffffffffffffffffffffffffffffffffffffffff90921691638f2a0bb091610d36918b918b918b91908b90899060040161389a565b600060405180830381600087803b158015610d5057600080fd5b505af1158015610d64573d6000803e3d6000fd5b505050507f9a2e42fd6722813d69113e7d0079d3d940171428df7373df9c7f7617cfda2892828242610d969190613921565b6040805192835260208301919091520160405180910390a15095945050505050565b600080610dc78686868661151c565b90506000610dd482610fd3565b90506004816007811115610dea57610dea6132b7565b1480610e0757506005816007811115610e0557610e056132b7565b145b610e795760405162461bcd60e51b815260206004820152602160248201527f476f7665726e6f723a2070726f706f73616c206e6f742073756363657373667560448201527f6c000000000000000000000000000000000000000000000000000000000000006064820152608401610b69565b60008281526001602081815260409283902060020180547fffffffffffffffffffffffffffffffffffffffffffffffffffffffffffffff001690921790915590518381527f712ae1383f79ac853f8d882153778e0260ef8f03b504e2866e0593e04d2b291f910160405180910390a1610ef582888888886119b1565b610f028288888888611a7b565b610f0f8288888888611a88565b5095945050505050565b600081815260016020908152604080832081519283019091525467ffffffffffffffff16908190525b67ffffffffffffffff1692915050565b600061092260045490565b604080517f150214d74d59b7d1e90c73fc22ef3d991dd0a76b046543d4d80ab92d2a50328f602082015290810186905260ff851660608201526000908190610fab906109df906080016109c4565b9050610fc887828860405180602001604052806000815250611adb565b979650505050505050565b600061093282611afe565b600080339050610fff84828560405180602001604052806000815250611adb565b949350505050565b600080339050610fc887828888888080601f0160208091040260200160405190810160405280939291908181526020018383808284376000920191909152508a925061181a915050565b611059610901565b73ffffffffffffffffffffffffffffffffffffffff163373ffffffffffffffffffffffffffffffffffffffff16146110d35760405162461bcd60e51b815260206004820152601860248201527f476f7665726e6f723a206f6e6c79476f7665726e616e636500000000000000006044820152606401610b69565b306110dc610901565b73ffffffffffffffffffffffffffffffffffffffff161461112b57600080366040516111099291906136f9565b604051809103902090505b8061111f6002611cb2565b1461112957611114565b505b61113481611d6f565b50565b60008033905061117f86828787878080601f016020809104026020016040519081016040528093929190818152602001838380828437600092019190915250611adb92505050565b9695505050505050565b600061119785858585611db0565b95945050505050565b60006111ad848484612179565b90505b9392505050565b6111bf610901565b73ffffffffffffffffffffffffffffffffffffffff163373ffffffffffffffffffffffffffffffffffffffff16146112395760405162461bcd60e51b815260206004820152601860248201527f476f7665726e6f723a206f6e6c79476f7665726e616e636500000000000000006044820152606401610b69565b30611242610901565b73ffffffffffffffffffffffffffffffffffffffff1614611291576000803660405161126f9291906136f9565b604051809103902090505b806112856002611cb2565b1461128f5761127a565b505b61113481612244565b6008546000828152600960205260408082205490517fd45c443500000000000000000000000000000000000000000000000000000000815260048101919091529091829173ffffffffffffffffffffffffffffffffffffffff9091169063d45c44359060240160206040518083038186803b15801561131857600080fd5b505afa15801561132c573d6000803e3d6000fd5b505050506040513d601f19601f82011682018060405250810190611350919061375d565b90508060011461136057806111b0565b60009392505050565b600061092260065490565b600081815260016020818152604080842081519283019091529091015467ffffffffffffffff1690819052610f42565b6113ac610901565b73ffffffffffffffffffffffffffffffffffffffff163373ffffffffffffffffffffffffffffffffffffffff16146114265760405162461bcd60e51b815260206004820152601860248201527f476f7665726e6f723a206f6e6c79476f7665726e616e636500000000000000006044820152606401610b69565b3061142f610901565b73ffffffffffffffffffffffffffffffffffffffff161461147e576000803660405161145c9291906136f9565b604051809103902090505b806114726002611cb2565b1461147c57611467565b505b6000808573ffffffffffffffffffffffffffffffffffffffff168585856040516114a99291906136f9565b60006040518083038185875af1925050503d80600081146114e6576040519150601f19603f3d011682016040523d82523d6000602084013e6114eb565b606091505b50915091506115138282604051806060016040528060288152602001613bbf602891396122df565b50505050505050565b6000848484846040516020016115359493929190613939565b60408051601f19818403018152919052805160209091012095945050505050565b61155e610901565b73ffffffffffffffffffffffffffffffffffffffff163373ffffffffffffffffffffffffffffffffffffffff16146115d85760405162461bcd60e51b815260206004820152601860248201527f476f7665726e6f723a206f6e6c79476f7665726e616e636500000000000000006044820152606401610b69565b306115e1610901565b73ffffffffffffffffffffffffffffffffffffffff1614611630576000803660405161160e9291906136f9565b604051809103902090505b806116246002611cb2565b1461162e57611619565b505b611134816122f8565b60006111b0838361165560408051602081019091526000815290565b612179565b611662610901565b73ffffffffffffffffffffffffffffffffffffffff163373ffffffffffffffffffffffffffffffffffffffff16146116dc5760405162461bcd60e51b815260206004820152601860248201527f476f7665726e6f723a206f6e6c79476f7665726e616e636500000000000000006044820152606401610b69565b306116e5610901565b73ffffffffffffffffffffffffffffffffffffffff161461173457600080366040516117129291906136f9565b604051809103902090505b806117286002611cb2565b146117325761171d565b505b611134816123af565b60007fffffffff0000000000000000000000000000000000000000000000000000000082167f6e665ced0000000000000000000000000000000000000000000000000000000014806109325750610932826123f0565b60006109326117a061251f565b836040517f19010000000000000000000000000000000000000000000000000000000000006020820152602281018390526042810182905260009060620160405160208183030381529060405280519060200120905092915050565b600080600061180d87878787612653565b91509150610f0f81612724565b600085815260016020819052604082209061183488610fd3565b6007811115611845576118456132b7565b146118b85760405162461bcd60e51b815260206004820152602360248201527f476f7665726e6f723a20766f7465206e6f742063757272656e746c792061637460448201527f69766500000000000000000000000000000000000000000000000000000000006064820152608401610b69565b6040805160208101909152815467ffffffffffffffff16908190526000906118e290889086612179565b90506118f1888888848861288d565b8351611950578673ffffffffffffffffffffffffffffffffffffffff167fb8e138887d0aa13bab447e82de9d5c1777041ecd21ca36ba824ff1e6c07ddda4898884896040516119439493929190613984565b60405180910390a2610fc8565b8673ffffffffffffffffffffffffffffffffffffffff167fe2babfbac5889a709b63bb7f598b324e08bc5a4fb9ec647fb3cbc9ec07eb8712898884898960405161199e9594939291906139ac565b60405180910390a2979650505050505050565b306119ba610901565b73ffffffffffffffffffffffffffffffffffffffff1614611a745760005b8451811015611a72573073ffffffffffffffffffffffffffffffffffffffff16858281518110611a0a57611a0a6139f2565b602002602001015173ffffffffffffffffffffffffffffffffffffffff161415611a6257611a62838281518110611a4357611a436139f2565b6020026020010151805190602001206002612a6290919063ffffffff16565b611a6b81613a21565b90506119d8565b505b5050505050565b611a748585858585612ab4565b30611a91610901565b73ffffffffffffffffffffffffffffffffffffffff1614611a7457600254600f81810b700100000000000000000000000000000000909204900b1315611a74576000600255611a74565b600061119785858585611af960408051602081019091526000815290565b61181a565b600080611b0a83612b4e565b90506004816007811115611b2057611b206132b7565b14611b2b5792915050565b60008381526009602052604090205480611b46575092915050565b6008546040517f2ab0f5290000000000000000000000000000000000000000000000000000000081526004810183905273ffffffffffffffffffffffffffffffffffffffff90911690632ab0f5299060240160206040518083038186803b158015611bb057600080fd5b505afa158015611bc4573d6000803e3d6000fd5b505050506040513d601f19601f82011682018060405250810190611be89190613a5a565b15611bf7575060079392505050565b6008546040517f584b153e0000000000000000000000000000000000000000000000000000000081526004810183905273ffffffffffffffffffffffffffffffffffffffff9091169063584b153e9060240160206040518083038186803b158015611c6157600080fd5b505afa158015611c75573d6000803e3d6000fd5b505050506040513d601f19601f82011682018060405250810190611c999190613a5a565b15611ca8575060059392505050565b5060029392505050565b6000611cda8254600f81810b700100000000000000000000000000000000909204900b131590565b15611d11576040517f3db2a12a00000000000000000000000000000000000000000000000000000000815260040160405180910390fd5b508054600f0b6000818152600180840160205260408220805492905583547fffffffffffffffffffffffffffffffff000000000000000000000000000000001692016fffffffffffffffffffffffffffffffff169190911790915590565b60045460408051918252602082018390527fc565b045403dc03c2eea82b81a0465edad9e2e7fc4d97e11421c209da93d7a93910160405180910390a1600455565b6000611dba611369565b611dc93361083b600143613a7c565b1015611e3d5760405162461bcd60e51b815260206004820152603160248201527f476f7665726e6f723a2070726f706f73657220766f7465732062656c6f77207060448201527f726f706f73616c207468726573686f6c640000000000000000000000000000006064820152608401610b69565b6000611e52868686868051906020012061151c565b90508451865114611ecb5760405162461bcd60e51b815260206004820152602160248201527f476f7665726e6f723a20696e76616c69642070726f706f73616c206c656e677460448201527f68000000000000000000000000000000000000000000000000000000000000006064820152608401610b69565b8351865114611f425760405162461bcd60e51b815260206004820152602160248201527f476f7665726e6f723a20696e76616c69642070726f706f73616c206c656e677460448201527f68000000000000000000000000000000000000000000000000000000000000006064820152608401610b69565b6000865111611f935760405162461bcd60e51b815260206004820152601860248201527f476f7665726e6f723a20656d7074792070726f706f73616c00000000000000006044820152606401610b69565b6000818152600160209081526040918290208251918201909252815467ffffffffffffffff1690819052156120305760405162461bcd60e51b815260206004820152602160248201527f476f7665726e6f723a2070726f706f73616c20616c726561647920657869737460448201527f73000000000000000000000000000000000000000000000000000000000000006064820152608401610b69565b600061204261203d610f52565b612c5a565b61204b43612c5a565b6120559190613a93565b9050600061206461203d610938565b61206e9083613a93565b83547fffffffffffffffffffffffffffffffffffffffffffffffff00000000000000001667ffffffffffffffff841617845590506001830180547fffffffffffffffffffffffffffffffffffffffffffffffff00000000000000001667ffffffffffffffff83161790557f7d84a6263ae0d98d3329bd7b46bb4e8d6f98cd35a7adb45c274c8b7fd5ebd5e084338b8b8d5167ffffffffffffffff81111561211757612117612de0565b60405190808252806020026020018201604052801561214a57816020015b60608152602001906001900390816121355790505b508c88888e60405161216499989796959493929190613abf565b60405180910390a15091979650505050505050565b6040517f3a46b1a800000000000000000000000000000000000000000000000000000000815273ffffffffffffffffffffffffffffffffffffffff8481166004830152602482018490526000917f000000000000000000000000000000000000000000000000000000000000000090911690633a46b1a89060440160206040518083038186803b15801561220c57600080fd5b505afa158015612220573d6000803e3d6000fd5b505050506040513d601f19601f820116820180604052508101906111ad919061375d565b6008546040805173ffffffffffffffffffffffffffffffffffffffff928316815291831660208301527f08f74ea46ef7894f65eabfb5e6e695de773a000b47c529ab559178069b226401910160405180910390a1600880547fffffffffffffffffffffffff00000000000000000000000000000000000000001673ffffffffffffffffffffffffffffffffffffffff92909216919091179055565b606083156122ee5750816111b0565b6111b08383612cde565b6000811161236e5760405162461bcd60e51b815260206004820152602760248201527f476f7665726e6f7253657474696e67733a20766f74696e6720706572696f642060448201527f746f6f206c6f77000000000000000000000000000000000000000000000000006064820152608401610b69565b60055460408051918252602082018390527f7e3f7f0708a84de9203036abaa450dccc85ad5ff52f78c170f3edb55cf5e8828910160405180910390a1600555565b60065460408051918252602082018390527fccb45da8d5717e6c4544694297c4ba5cf151d455c9bb0ed4fc7a38411bc05461910160405180910390a1600655565b60007fffffffff0000000000000000000000000000000000000000000000000000000082167fbf26d89700000000000000000000000000000000000000000000000000000000148061248357507fffffffff0000000000000000000000000000000000000000000000000000000082167f79dd796f00000000000000000000000000000000000000000000000000000000145b806124cf57507fffffffff0000000000000000000000000000000000000000000000000000000082167f4e2312e000000000000000000000000000000000000000000000000000000000145b8061093257507f01ffc9a7000000000000000000000000000000000000000000000000000000007fffffffff00000000000000000000000000000000000000000000000000000000831614610932565b60003073ffffffffffffffffffffffffffffffffffffffff7f00000000000000000000000000000000000000000000000000000000000000001614801561258557507f000000000000000000000000000000000000000000000000000000000000000046145b156125af57507f000000000000000000000000000000000000000000000000000000000000000090565b50604080517f00000000000000000000000000000000000000000000000000000000000000006020808301919091527f0000000000000000000000000000000000000000000000000000000000000000828401527f000000000000000000000000000000000000000000000000000000000000000060608301524660808301523060a0808401919091528351808403909101815260c0909201909252805191012090565b6000807f7fffffffffffffffffffffffffffffff5d576e7357a4501ddfe92f46681b20a083111561268a575060009050600361271b565b6040805160008082526020820180845289905260ff881692820192909252606081018690526080810185905260019060a0016020604051602081039080840390855afa1580156126de573d6000803e3d6000fd5b5050604051601f19015191505073ffffffffffffffffffffffffffffffffffffffff81166127145760006001925092505061271b565b9150600090505b94509492505050565b6000816004811115612738576127386132b7565b14156127415750565b6001816004811115612755576127556132b7565b14156127a35760405162461bcd60e51b815260206004820152601860248201527f45434453413a20696e76616c6964207369676e617475726500000000000000006044820152606401610b69565b60028160048111156127b7576127b76132b7565b14156128055760405162461bcd60e51b815260206004820152601f60248201527f45434453413a20696e76616c6964207369676e6174757265206c656e677468006044820152606401610b69565b6003816004811115612819576128196132b7565b14156111345760405162461bcd60e51b815260206004820152602260248201527f45434453413a20696e76616c6964207369676e6174757265202773272076616c60448201527f75650000000000000000000000000000000000000000000000000000000000006064820152608401610b69565b600085815260076020908152604080832073ffffffffffffffffffffffffffffffffffffffff88168452600381019092529091205460ff16156129385760405162461bcd60e51b815260206004820152602760248201527f476f7665726e6f72566f74696e6753696d706c653a20766f746520616c72656160448201527f64792063617374000000000000000000000000000000000000000000000000006064820152608401610b69565b73ffffffffffffffffffffffffffffffffffffffff85166000908152600382016020526040812080547fffffffffffffffffffffffffffffffffffffffffffffffffffffffffffffff0016600117905560ff168460ff1614156129b457828160000160008282546129a99190613921565b90915550611a729050565b60ff8416600114156129d457828160010160008282546129a99190613921565b60ff8416600214156129f457828160020160008282546129a99190613921565b60405162461bcd60e51b815260206004820152603560248201527f476f7665726e6f72566f74696e6753696d706c653a20696e76616c696420766160448201527f6c756520666f7220656e756d20566f74655479706500000000000000000000006064820152608401610b69565b815470010000000000000000000000000000000090819004600f0b6000818152600180860160205260409091209390935583546fffffffffffffffffffffffffffffffff908116939091011602179055565b6008546040517fe38335e500000000000000000000000000000000000000000000000000000000815273ffffffffffffffffffffffffffffffffffffffff9091169063e38335e5903490612b1590889088908890600090899060040161384c565b6000604051808303818588803b158015612b2e57600080fd5b505af1158015612b42573d6000803e3d6000fd5b50505050505050505050565b6000818152600160205260408120600281015460ff1615612b725750600792915050565b6002810154610100900460ff1615612b8d5750600292915050565b6000612b9884610f19565b905080612be75760405162461bcd60e51b815260206004820152601d60248201527f476f7665726e6f723a20756e6b6e6f776e2070726f706f73616c2069640000006044820152606401610b69565b438110612bf8575060009392505050565b6000612c0385611374565b9050438110612c1757506001949350505050565b612c2085612d08565b8015612c3f575060008581526007602052604090208054600190910154115b15612c4f57506004949350505050565b506003949350505050565b600067ffffffffffffffff821115612cda5760405162461bcd60e51b815260206004820152602660248201527f53616665436173743a2076616c756520646f65736e27742066697420696e203660448201527f34206269747300000000000000000000000000000000000000000000000000006064820152608401610b69565b5090565b815115612cee5781518083602001fd5b8060405162461bcd60e51b8152600401610b699190612fac565b600081815260076020526040812060028101546001820154612d2a9190613921565b612d366108c085610f19565b11159392505050565b600060208284031215612d5157600080fd5b81357fffffffff00000000000000000000000000000000000000000000000000000000811681146111b057600080fd5b803560ff81168114612d9257600080fd5b919050565b60008083601f840112612da957600080fd5b50813567ffffffffffffffff811115612dc157600080fd5b602083019150836020828501011115612dd957600080fd5b9250929050565b7f4e487b7100000000000000000000000000000000000000000000000000000000600052604160045260246000fd5b604051601f8201601f1916810167ffffffffffffffff81118282101715612e3857612e38612de0565b604052919050565b600067ffffffffffffffff831115612e5a57612e5a612de0565b612e6d6020601f19601f86011601612e0f565b9050828152838383011115612e8157600080fd5b828260208301376000602084830101529392505050565b600082601f830112612ea957600080fd5b6111b083833560208501612e40565b60008060008060008060008060e0898b031215612ed457600080fd5b88359750612ee460208a01612d81565b9650604089013567ffffffffffffffff80821115612f0157600080fd5b612f0d8c838d01612d97565b909850965060608b0135915080821115612f2657600080fd5b50612f338b828c01612e98565b945050612f4260808a01612d81565b925060a0890135915060c089013590509295985092959890939650565b6000815180845260005b81811015612f8557602081850181015186830182015201612f69565b81811115612f97576000602083870101525b50601f01601f19169290920160200192915050565b6020815260006111b06020830184612f5f565b73ffffffffffffffffffffffffffffffffffffffff8116811461113457600080fd5b60008060008060808587031215612ff757600080fd5b843561300281612fbf565b9350602085013561301281612fbf565b925060408501359150606085013567ffffffffffffffff81111561303557600080fd5b61304187828801612e98565b91505092959194509250565b600067ffffffffffffffff82111561306757613067612de0565b5060051b60200190565b600082601f83011261308257600080fd5b813560206130976130928361304d565b612e0f565b82815260059290921b840181019181810190868411156130b657600080fd5b8286015b848110156130da5780356130cd81612fbf565b83529183019183016130ba565b509695505050505050565b600082601f8301126130f657600080fd5b813560206131066130928361304d565b82815260059290921b8401810191818101908684111561312557600080fd5b8286015b848110156130da5780358352918301918301613129565b600082601f83011261315157600080fd5b813560206131616130928361304d565b82815260059290921b8401810191818101908684111561318057600080fd5b8286015b848110156130da57803567ffffffffffffffff8111156131a45760008081fd5b6131b28986838b0101612e98565b845250918301918301613184565b600080600080608085870312156131d657600080fd5b843567ffffffffffffffff808211156131ee57600080fd5b6131fa88838901613071565b9550602087013591508082111561321057600080fd5b61321c888389016130e5565b9450604087013591508082111561323257600080fd5b5061323f87828801613140565b949793965093946060013593505050565b60006020828403121561326257600080fd5b5035919050565b600080600080600060a0868803121561328157600080fd5b8535945061329160208701612d81565b935061329f60408701612d81565b94979396509394606081013594506080013592915050565b7f4e487b7100000000000000000000000000000000000000000000000000000000600052602160045260246000fd5b6020810160088310613321577f4e487b7100000000000000000000000000000000000000000000000000000000600052602160045260246000fd5b91905290565b6000806040838503121561333a57600080fd5b82359150602083013561334c81612fbf565b809150509250929050565b6000806040838503121561336a57600080fd5b8235915061337a60208401612d81565b90509250929050565b60008060008060006080868803121561339b57600080fd5b853594506133ab60208701612d81565b9350604086013567ffffffffffffffff808211156133c857600080fd5b6133d489838a01612d97565b909550935060608801359150808211156133ed57600080fd5b506133fa88828901612e98565b9150509295509295909350565b6000806000806060858703121561341d57600080fd5b8435935061342d60208601612d81565b9250604085013567ffffffffffffffff81111561344957600080fd5b61345587828801612d97565b95989497509550505050565b6000806000806080858703121561347757600080fd5b843567ffffffffffffffff8082111561348f57600080fd5b61349b88838901613071565b955060208701359150808211156134b157600080fd5b6134bd888389016130e5565b945060408701359150808211156134d357600080fd5b6134df88838901613140565b935060608701359150808211156134f557600080fd5b508501601f8101871361350757600080fd5b61304187823560208401612e40565b60008060006060848603121561352b57600080fd5b833561353681612fbf565b925060208401359150604084013567ffffffffffffffff81111561355957600080fd5b61356586828701612e98565b9150509250925092565b60006020828403121561358157600080fd5b81356111b081612fbf565b600080600080600060a086880312156135a457600080fd5b85356135af81612fbf565b945060208601356135bf81612fbf565b9350604086013567ffffffffffffffff808211156135dc57600080fd5b6135e889838a016130e5565b945060608801359150808211156135fe57600080fd5b61360a89838a016130e5565b935060808801359150808211156133ed57600080fd5b6000806000806060858703121561363657600080fd5b843561364181612fbf565b935060208501359250604085013567ffffffffffffffff81111561344957600080fd5b6000806040838503121561367757600080fd5b823561368281612fbf565b946020939093013593505050565b600080600080600060a086880312156136a857600080fd5b85356136b381612fbf565b945060208601356136c381612fbf565b93506040860135925060608601359150608086013567ffffffffffffffff8111156136ed57600080fd5b6133fa88828901612e98565b8183823760009101908152919050565b600181811c9082168061371d57607f821691505b60208210811415613757577f4e487b7100000000000000000000000000000000000000000000000000000000600052602260045260246000fd5b50919050565b60006020828403121561376f57600080fd5b5051919050565b600081518084526020808501945080840160005b838110156137bc57815173ffffffffffffffffffffffffffffffffffffffff168752958201959082019060010161378a565b509495945050505050565b600081518084526020808501945080840160005b838110156137bc578151875295820195908201906001016137db565b600081518084526020808501808196508360051b8101915082860160005b8581101561383f57828403895261382d848351612f5f565b98850198935090840190600101613815565b5091979650505050505050565b60a08152600061385f60a0830188613776565b828103602084015261387181886137c7565b9050828103604084015261388581876137f7565b60608401959095525050608001529392505050565b60c0815260006138ad60c0830189613776565b82810360208401526138bf81896137c7565b905082810360408401526138d381886137f7565b60608401969096525050608081019290925260a0909101529392505050565b7f4e487b7100000000000000000000000000000000000000000000000000000000600052601160045260246000fd5b60008219821115613934576139346138f2565b500190565b60808152600061394c6080830187613776565b828103602084015261395e81876137c7565b9050828103604084015261397281866137f7565b91505082606083015295945050505050565b84815260ff8416602082015282604082015260806060820152600061117f6080830184612f5f565b85815260ff8516602082015283604082015260a0606082015260006139d460a0830185612f5f565b82810360808401526139e68185612f5f565b98975050505050505050565b7f4e487b7100000000000000000000000000000000000000000000000000000000600052603260045260246000fd5b60007fffffffffffffffffffffffffffffffffffffffffffffffffffffffffffffffff821415613a5357613a536138f2565b5060010190565b600060208284031215613a6c57600080fd5b815180151581146111b057600080fd5b600082821015613a8e57613a8e6138f2565b500390565b600067ffffffffffffffff808316818516808303821115613ab657613ab66138f2565b01949350505050565b60006101208b8352602073ffffffffffffffffffffffffffffffffffffffff8c1681850152816040850152613af68285018c613776565b91508382036060850152613b0a828b6137c7565b915083820360808501528189518084528284019150828160051b850101838c0160005b83811015613b5b57601f19878403018552613b49838351612f5f565b94860194925090850190600101613b2d565b505086810360a0880152613b6f818c6137f7565b945050505050613b8b60c084018767ffffffffffffffff169052565b67ffffffffffffffff851660e0840152828103610100840152613bae8185612f5f565b9c9b50505050505050505050505056fe476f7665726e6f723a2072656c617920726576657274656420776974686f7574206d657373616765a2646970667358221220a72c80b7433b0e7ed79972b67d264994334e903489ac12c49019e2d43dbf59e864736f6c63430008090033",
  "linkReferences": {},
  "deployedLinkReferences": {}
}