{
    "_format": "hh-sol-artifact-1",
    "contractName": "Posting",
    "sourceName": "contracts/Posting.sol",
    "abi": [
        {
            "anonymous": false,
            "inputs": [
                {
                    "indexed": true,
                    "internalType": "address",
                    "name": "previousOwner",
                    "type": "address"
                },
                {
                    "indexed": true,
                    "internalType": "address",
                    "name": "newOwner",
                    "type": "address"
                }
            ],
            "name": "OwnershipTransferred",
            "type": "event"
        },
        {
            "anonymous": false,
            "inputs": [
                {
                    "indexed": false,
                    "internalType": "string",
                    "name": "key",
                    "type": "string"
                }
            ],
            "name": "PostStored",
            "type": "event"
        },
        {
            "inputs": [],
            "name": "owner",
            "outputs": [
                {
                    "internalType": "address",
                    "name": "",
                    "type": "address"
                }
            ],
            "stateMutability": "view",
            "type": "function"
        },
        {
            "inputs": [],
            "name": "renounceOwnership",
            "outputs": [],
            "stateMutability": "nonpayable",
            "type": "function"
        },
        {
            "inputs": [
                {
                    "internalType": "string",
                    "name": "key",
                    "type": "string"
                }
            ],
            "name": "retrieve",
            "outputs": [
                {
                    "internalType": "string",
                    "name": "",
                    "type": "string"
                }
            ],
            "stateMutability": "view",
            "type": "function"
        },
        {
            "inputs": [
                {
                    "internalType": "string",
                    "name": "key",
                    "type": "string"
                },
                {
                    "internalType": "string",
                    "name": "ipfsUrl",
                    "type": "string"
                }
            ],
            "name": "store",
            "outputs": [],
            "stateMutability": "nonpayable",
            "type": "function"
        },
        {
            "inputs": [
                {
                    "internalType": "address",
                    "name": "newOwner",
                    "type": "address"
                }
            ],
            "name": "transferOwnership",
            "outputs": [],
            "stateMutability": "nonpayable",
            "type": "function"
        }
    ],
    "bytecode": "0x608060405234801561001057600080fd5b5061001a3361001f565b61006f565b600080546001600160a01b038381166001600160a01b0319831681178455604051919092169283917f8be0079c531659141344cd1fd0a4f28419497f9722a3daafe3b4186f6b6457e09190a35050565b6107518061007e6000396000f3fe608060405234801561001057600080fd5b50600436106100675760003560e01c80638da5cb5b116100505780638da5cb5b1461009f578063f2fde38b146100c7578063f641090c146100da57600080fd5b806364cc73271461006c578063715018a614610095575b600080fd5b61007f61007a36600461054c565b6100ed565b60405161008c91906105b9565b60405180910390f35b61009d61019d565b005b60005460405173ffffffffffffffffffffffffffffffffffffffff909116815260200161008c565b61009d6100d536600461060a565b6101b1565b61009d6100e8366004610647565b61026d565b60606001826040516100ff91906106ab565b90815260200160405180910390208054610118906106c7565b80601f0160208091040260200160405190810160405280929190818152602001828054610144906106c7565b80156101915780601f1061016657610100808354040283529160200191610191565b820191906000526020600020905b81548152906001019060200180831161017457829003601f168201915b50505050509050919050565b6101a56102e3565b6101af6000610364565b565b6101b96102e3565b73ffffffffffffffffffffffffffffffffffffffff8116610261576040517f08c379a000000000000000000000000000000000000000000000000000000000815260206004820152602660248201527f4f776e61626c653a206e6577206f776e657220697320746865207a65726f206160448201527f646472657373000000000000000000000000000000000000000000000000000060648201526084015b60405180910390fd5b61026a81610364565b50565b6102756102e3565b8060018360405161028691906106ab565b908152602001604051809103902090805190602001906102a79291906103d9565b507f4c0364e2226617c4b47477b80b3bbcbbbbc5dd731c706bbf5c23baf6e8b74989826040516102d791906105b9565b60405180910390a15050565b60005473ffffffffffffffffffffffffffffffffffffffff1633146101af576040517f08c379a000000000000000000000000000000000000000000000000000000000815260206004820181905260248201527f4f776e61626c653a2063616c6c6572206973206e6f7420746865206f776e65726044820152606401610258565b6000805473ffffffffffffffffffffffffffffffffffffffff8381167fffffffffffffffffffffffff0000000000000000000000000000000000000000831681178455604051919092169283917f8be0079c531659141344cd1fd0a4f28419497f9722a3daafe3b4186f6b6457e09190a35050565b8280546103e5906106c7565b90600052602060002090601f016020900481019282610407576000855561044d565b82601f1061042057805160ff191683800117855561044d565b8280016001018555821561044d579182015b8281111561044d578251825591602001919060010190610432565b5061045992915061045d565b5090565b5b80821115610459576000815560010161045e565b7f4e487b7100000000000000000000000000000000000000000000000000000000600052604160045260246000fd5b600082601f8301126104b257600080fd5b813567ffffffffffffffff808211156104cd576104cd610472565b604051601f83017fffffffffffffffffffffffffffffffffffffffffffffffffffffffffffffffe0908116603f0116810190828211818310171561051357610513610472565b8160405283815286602085880101111561052c57600080fd5b836020870160208301376000602085830101528094505050505092915050565b60006020828403121561055e57600080fd5b813567ffffffffffffffff81111561057557600080fd5b610581848285016104a1565b949350505050565b60005b838110156105a457818101518382015260200161058c565b838111156105b3576000848401525b50505050565b60208152600082518060208401526105d8816040850160208701610589565b601f017fffffffffffffffffffffffffffffffffffffffffffffffffffffffffffffffe0169190910160400192915050565b60006020828403121561061c57600080fd5b813573ffffffffffffffffffffffffffffffffffffffff8116811461064057600080fd5b9392505050565b6000806040838503121561065a57600080fd5b823567ffffffffffffffff8082111561067257600080fd5b61067e868387016104a1565b9350602085013591508082111561069457600080fd5b506106a1858286016104a1565b9150509250929050565b600082516106bd818460208701610589565b9190910192915050565b600181811c908216806106db57607f821691505b60208210811415610715577f4e487b7100000000000000000000000000000000000000000000000000000000600052602260045260246000fd5b5091905056fea264697066735822122065ba638240a93df3f8b89899ff1eb3a6e7819acb3ed5d231dffb788e39a36d7f64736f6c63430008090033",
    "linkReferences": {},
    "deployedLinkReferences": {}
}